:020000040800F2
:100000000050002051100008A3100008A51000089F
:10001000A7100008A9100008AB100008000000009D
:10002000000000000000000000000000AD1000080B
:10003000AF10000800000000B1100008B310000865
:10004000A1100008A1100008A1100008A1100008CC
:10005000A1100008A1100008A1100008A1100008BC
:10006000A1100008A1100008A1100008A1100008AC
:10007000A1100008A1100008A1100008A11000089C
:10008000A1100008A1100008A1100008A11000088C
:10009000A1100008A1100008A1100008A11000087C
:1000A000A1100008A1100008A1100008A11000086C
:1000B000A1100008A1100008A1100008A11000085C
:1000C000A1100008A1100008A1100008A11000084C
:1000D000A1100008A1100008A1100008A11000083C
:1000E000A1100008A1100008A110000800000000E5
:1000F0000000000000000000000000000000000000
:0C01000000000000000000005FF808F1A3
:10010C0010B5054C237833B9044B13B10448AFF345
:10011C0000800123237010BD14000020000000009B
:10012C00EC11000808B5034B1BB103490348AFF3AE
:10013C00008008BD0000000018000020EC11000831
:10014C00CB782DE9F041DA0648BF8A780E8803F0A7
:10015C000F0548BF154316F0FF0F1AD000214FF0C2
:10016C00010E4FF00F0C02680EFA01F737EA060485
:10017C000BD18C000CFA04F822EA080205FA04F4FC
:10018C00282B42EA040225D1476101310829EBD121
:10019C000260FF2E1CD900214FF0010E4FF00F0C06
:1001AC00426801F108040EFA04F434EA06070BD194
:1001BC008F000CFA07F822EA080205FA07F7282B39
:1001CC0042EA07020AD1446101310829E9D14260AF
:1001DC00BDE8F081482B08BF0761D6E7482B08BF64
:1001EC000461F1E770B586B00446868801A80D4617
:1001FC0000F09EF8039A2E4926F03F06B2FBF1F16F
:10020C003604360C88B20643A6802388294E23F088
:10021C0001031B041B0C23802B68B34223D85B0007
:10022C00B2FBF3F39BB2042B38BF0423013080B232
:10023C002084A3832388AA889BB243F001032380E4
:10024C002388698923F4816323F002031B040A4386
:10025C001B0C13439BB223802A89AB8913439BB29B
:10026C00238106B070BD4BF6FF70EE8886421BBF33
:10027C001920434303EB4303B2FBF3F30BBFB2FB75
:10028C00F3F39BB29BB243F48043C3F30B020AB962
:10029C0043F001034FF496724A434FF47A7192FB88
:1002AC00F1F2013292B243F400432284C1E700BF61
:1002BC0040420F00A0860100038821B19BB243F09D
:1002CC0001030380704723F001031B041B0CF8E7A8
:1002DC00038821B19BB243F480730380704723F4ED
:1002EC0080731B041B0CF8E7038821B19BB243F409
:1002FC0000730380704723F400731B041B0CF8E796
:10030C000182704722B141F0010189B2018270472C
:10031C0001F0FE01F9E7838A008B9BB243EA0043AC
:10032C0021F07F401840431A584258417047000052
:10033C001C4A10B5536803F00C03042B01D0082B96
:10034C001FD0194B03605368184CC3F30313E15CC3
:10035C000368CB4043605168C1F30221615C23FA0E
:10036C0001F181605168C1F3C221615CCB40C36073
:10037C0052680F49C2F381328A5CB3FBF2F303611A
:10038C0010BD53685168C3F38343CC0303F10203DC
:10039C0002D408494B43D5E751688903F9D4024983
:1003AC00F8E700BF0010024000127A0004000020A1
:1003BC000000002000093D00044B9A6911B1104364
:1003CC009861704722EA0000FAE700BF0010024073
:1003DC00044BDA6911B11043D861704722EA00006E
:1003EC00FAE700BF0010024070B51B4D8AB003AC99
:1003FC0006460FCD0FC495E80700184B0025009357
:10040C000A238DF80530082384E807002C46029651
:10041C008DF804508DF8063000F098FD0AA901EB18
:10042C0084012E23502251F81C1C684600F021FC3C
:10043C0000F018FD32220135B5FBF2F302FB135329
:10044C00002BE9D107230134E4B2B4FBF3F3C3EB83
:10045C00C303E41AE4B2DFE7041200082012000818
:10046C002DE9F04F88468FB000286DD00768002F1B
:10047C0000F0CD808568002D00F0CB80A96802913A
:10048C00002900F0C8802979B5F800E011F00104CA
:10049C0008946C8801F0030112BFA446F446A646EA
:1004AC008C1E059400293FD0CC1E61426141049101
:1004BC0008F1010189B217F8019008F1020189B223
:1004CC007C5608F1040189B217F801B008F1030158
:1004DC0089B27D5617F808601544059AADB2012A09
:1004EC0024D8ACEB050292B20FFA82FA921B12B22C
:1004FC000192049AA9EB0404F2B1E11A714489B295
:10050C000CB2A1EB090109B2BAF1000F02DA019B9E
:10051C00002B04DBE2451ADD019B9C4517DA5E4596
:10052C0010D205EB0B000EE00121C0E72AB20192BC
:10053C00AA190FFA82FADCE71C1BA4B221B24C44B4
:10054C0024B2E1E7A81900B20FB0BDE8F08F002C7F
:10055C0001DA0029E3DB03797445099301DD8E454B
:10056C00DDDB002303938BB20693E31A013B0C9360
:10057C00069ABDF80C3002EB03091FFA89F90FFA41
:10058C0089F29442CBDD049A12B90C9AD31A9BB21D
:10059C0073430A930023BDF804200792AAEB0202CE
:1005AC00013A0B9207999AB2881880B201B28A4527
:1005BC0003DC039B01330393DAE74FF0800C0599BE
:1005CC0001299CBF0B998A1A0A9998BF92B20A44C6
:1005DC0008F1050189B207EBE20E02F007024CFAB2
:1005EC0002FC1EF80120099902EA0C02890614D5B6
:1005FC00B2FA82F2520908990D9331B1014648467C
:10060C00029B98470D9B0133CCE74946F8E73846E7
:10061C009AE7284698E7029896E7002AF3D0EAE78B
:10062C00F0B585B010B9002005B0F0BD0029FAD0A6
:10063C00FE238DF80030E0238DF804308DF80B305C
:10064C00C0238DF80C300023FC25F824F0220B700D
:10065C004B708B70CB708DF801508DF8085005786D
:10066C008DF802404FFA85FE9E458DF803208DF8DB
:10067C0009408DF80A2001F103063FDA02AA1DF8A1
:10068C00037013F802C02F40BC45DCB232D1FF22FC
:10069C00C3F107031A4103460EEA0202C4F1050432
:1006AC00C7B2E4B20A70C7F1020E5A780EEB03001F
:1006BC00C0B2002AB7D002F0C002802AB3D13246B1
:1006CC0012F8015C92F800C0AD0845EA8C1502F8EE
:1006DC0001599142F4D10A789201D2B20A7013F8FE
:1006EC00015F05F03F052A430A70DA1BD2B294422F
:1006FC00DBD899E70133052BC1D194E70D700120AC
:10070C0092E72DE9F04120B329B1002601F1030E47
:10071C00F4B2944202D30020BDE8F08104EB44040F
:10072C0003EB4404651E4F1E054417F8018F15F8A2
:10073C0001CFE0450BD17745F7D1631D04349BB253
:10074C00A4B2C15C005D40EA0120BDE8F081013635
:10075C00DEE7BDE8F0812DE9F04F8BB09846149E92
:10076C008346002800F0B580002900F0B280002EEE
:10077C0000F0AF808368002B00F0AB800568002D83
:10078C0000F0A7802B78C82B40F0A38090F906309E
:10079C002C7904936B78E8780593AB78328003223C
:1007AC0040EA04200690580090FBF2F20024DB4350
:1007BC00C24689464FF4FA470292BDF80820F480ED
:1007CC00B480A6F8028003920194079399F8003044
:1007DC00BBB99DF8101001984A008442ACBF1419A3
:1007EC00141890443288BFB2A8EB0708521A7F1A2B
:1007FC00B480A6F806803280778018460BB0BDE82E
:10080C00F08F0A2B15D1079B09F101099A449BF82B
:10081C0004300FFA8AFA5A0644BF9BF90530E41AE1
:10082C00019B48BF24B2A342B8BF234600240193C6
:10083C00CCE709A94846FFF7F3FE03460028DCD0B5
:10084C008144059B069A09A92846FFF75AFF80B3F5
:10085C00431C9BB2E95C831C9BB215F800C0EA56A2
:10086C00C31C04309BB280B215F903E02B5C8A1ACE
:10087C009C4598BFE4189BF8043088BF64445B0621
:10088C0048BF9BF90530AAEB020224B292B248BFD2
:10089C00E41813B248BF24B29F42A8BF1F460B44B2
:1008AC007444984524B291DA02EB01080FFA88F8E7
:1008BC008CE7039B1C44029B24B253444345C2BFA8
:1008CC00039B03EB0A080FFA88F85745A8BF574655
:1008DC007CE7012391E72DE9F04F984685B000287D
:1008EC0000F0C280002900F0BF8090F804E0B1F95C
:1008FC000070B1F90240CD8889881EF0010F15BF38
:10090C0026463E463C460F461CBF2F460D461EF063
:10091C00030E0388B0F802C002D0BEF1030F03D15E
:10092C00ACEB05010C1B24B2AEF1020EBEF1010FB3
:10093C0098BFD91BD0F808A09CBF8E1B36B2BAF159
:10094C00000F00F0918037443FB22544002F2DB2A8
:10095C0002DA002EC0F288809F4202DDB342C0F260
:10096C008380002D01DA002C7EDB654501DDA4457A
:10097C007ADB9F42CABF1FB201230023002EB6BFF1
:10098C000026012131466545CABF002001200FFA1F
:10099C008CF5002CB8BF0024B8FA88F8B4BFA34675
:1009AC004FF0010B012A01904FEA581813D1AC42B9
:1009BC002ADA30461FFA84FB08E01FFA80F9484611
:1009CC0042465946D04709F1010000B2B842F4DB67
:1009DC00013424B2EBE721B1A146B2B202924D45EB
:1009EC0016DC23B1A1467B1E9BB24D451DDCBBF131
:1009FC00000F03D03046A4B2874223DC019B1BB10D
:100A0C00013DADB2B74227DC002005B0BDE8F08F48
:100A1C001FFA89F9039349464246029809F10109E4
:100A2C00D0470FFA89F9039BD9E71FFA89F9494690
:100A3C0018460293424609F10109D0470FFA89F989
:100A4C00029BD2E71FFA80F9484642462146D0471E
:100A5C0009F1010000B2CFE7B6B230464246294652
:100A6C000136D04736B2CDE70120CEE72DE9F04F65
:100A7C000E4689B0934698460546002868D0002952
:100A8C0066D08368002B63D00768002F60D03B785A
:100A9C00C82B04D00024204609B0BDE8F08F7B7829
:100AAC003A790193BB780093FB7843EA02230293D3
:100ABC00009B4FEA4309032399FBF3F91FFA89FAC8
:100ACC00AAF104039BB203935C463378002BE2D06B
:100ADC000A2B06D1009B0136DB4398440FFA88F8A9
:100AEC00F2E705A93046FFF79BFD0028D2D005A9F7
:100AFC000644019B029A3846FFF703FE014688B173
:100B0C002B79224613F0400F2846434606D0FFF7B8
:100B1C00A7FC95F90540044424B2D6E7FFF7A0FCE6
:100B2C000446D2E7B9F1050F10DDA31CADF818305F
:100B3C00BDF80C300246ADF81C3006A90346A86877
:100B4C00ADF81A80ADF81EA0FFF7C5FE5444E3E7DC
:100B5C000124A0E710B5002900F08980002800F0DE
:100B6C00878000244B1E8A1D03F8014F9342FBD152
:100B7C007F2803D808700120C0B210BDB0F5006FFB
:100B8C000AD2830900F03F0060F07F0063F03F035E
:100B9C0048700B700220EFE7B0F5803F0FD2030BCB
:100BAC0063F01F030B70C0F3851300F03F0060F07F
:100BBC007F0063F07F0388704B700320DCE7B0F597
:100BCC00001F14D2830C63F00F030B70C0F30533BA
:100BDC0063F07F034B70C0F3851300F03F0060F0AF
:100BEC007F0063F07F03C8708B700420C4E7B0F102
:100BFC00806F19D2030E63F007030B70C0F38543AB
:100C0C0063F07F034B70C0F3053363F07F038B708D
:100C1C00C0F3851300F03F0060F07F0063F07F03AA
:100C2C000871CB700520A7E700281EDB830F63F04B
:100C3C0003030B70C0F3056363F07F034B70C0F3C9
:100C4C00854363F07F038B70C0F3053363F07F0340
:100C5C00CB70C0F3851363F07F030B7100F03F037F
:100C6C0063F07F034B71062086E7002084E708467B
:100C7C0010BDF0B50F4687B015461E46044610B998
:100C8C00002007B0F0BD8368002BF9D002A93846CC
:100C9C00FFF760FF0028F3D02379DB061BD504AFE8
:100CAC0033462A4602A900972046FFF754FD2279C5
:100CBC000023C2F340123946A068FFF70CFE3346FE
:100CCC002A4602A92046FFF7D1FE94F9063000EB24
:100CDC00430000B2D5E733462A4602A92046FFF767
:100CEC00C5FECEE730B5012187B005460820FFF7D9
:100CFC0063FB01214FF40010FFF76AFBC023ADF832
:100D0C00043003238DF806301C2301A912488DF8FA
:100D1C000730FFF715FA0023ADF80C304BF6FF73D4
:100D2C00ADF80E301023ADF810304FF48063ADF8F1
:100D3C0012304FF4804306AC44F8105D074D01218E
:100D4C002846ADF81430FFF7B7FA21462846FFF7CE
:100D5C0049FA07B030BD00BF000C01400054004000
:100D6C001FB50D48FFF7BEFF00F0FCF88023ADF86F
:100D7C00043040230024ADF80630084B8DF80840B1
:100D8C00039300F0E3F800F06DF801A8FFF72CFBDB
:100D9C00204604B010BD00BF801A060021100008C8
:100DAC006423002182B00191019AB2F57A6F03D3CA
:100DBC00013BF8D102B07047019A01320192F3E77E
:100DCC0070B5012105462348FFF782FA44F62164E9
:100DDC00214E31461F48FFF79EFA50B3002278216E
:100DEC001C48FFF78FFA44F621641C4E3146194813
:100DFC00FFF791FA08B300211648FFF781FA44F681
:100E0C002164174E31461348FFF785FAC8B12946BD
:100E1C001048FFF775FA44F62164114D29460D4828
:100E2C00FFF779FA88B101210A48FFF75DFA002033
:100E3C0070BD013CCDD1012070BD013CD6D102204A
:100E4C0070BD013CDED1032070BD013CE6D1042015
:100E5C0070BD00BF00540040010003008200070079
:100E6C00840007002DE9F0412120FFF7A9FF0020A5
:100E7C00FFF7A6FF7F20FFF7A3FF2220FFF7A0FFBD
:100E8C000020FFF79DFF0720FFF79AFF01212A485A
:100E9C00FFF71EFA44F62164284D29462648FFF731
:100EAC003AFAA0B3002278212348FFF72BFA44F634
:100EBC002164234D29462048FFF72DFA60B34021C9
:100ECC001D48FFF71DFA44F621641E4E1A4D31469B
:100EDC002846FFF720FA20B300241B4EDFF8588079
:100EEC00184F315D4046FFF70BFA44F62165394641
:100EFC001148FFF710FAC8B10134B4F5806FF0D186
:100F0C0001210D48FFF7F0F90020BDE8F081013C0C
:100F1C00C3D10120BDE8F081013CCBD10220BDE85A
:100F2C00F081013CD3D10320BDE8F081013DDED13D
:100F3C000420BDE8F08100BF005400400100030014
:100F4C0082000700840007003000002000231946AF
:100F5C00034A99540133B3F5806FFAD1704700BF3F
:100F6C003000002008B5FFF71BFFAE20FFF728FF6D
:100F7C000020FFF725FF1020FFF722FF4020FFF78E
:100F8C001FFF8120FFF71CFFCC20FFF719FFA120CA
:100F9C00FFF716FFC820FFF713FFA620FFF710FF7F
:100FAC00A420FFF70DFFA820FFF70AFF3F20FFF753
:100FBC0007FFD320FFF704FF0020FFF701FFD52028
:100FCC00FFF7FEFEF020FFF7FBFED920FFF7F8FE3F
:100FDC00F120FFF7F5FEDA20FFF7F2FE1220FFF703
:100FEC00EFFEDB20FFF7ECFE4020FFF7E9FE2020B0
:100FFC00FFF7E6FE0020FFF7E3FE8D20FFF7E0FE93
:10100C001420FFF7DDFEAF20FFF7DAFEFFF7C8FE76
:10101C00002008BD7F2810B50ED83F290CD8CB086E
:10102C0000EBC3100123064C01F0070180B28B408A
:10103C00215C12B10B43235410BD21EA0303FAE7E0
:10104C0030000020DFF834D0002103E00C4B5B585B
:10105C00435004310B480C4B42189A42F6D30B4ABE
:10106C0002E0002342F8043B094B9A42F9D300F00A
:10107C001BF800F091F8FFF773FE7047005000204A
:10108C0008150008000000201400002014000020A7
:10109C0030040020FEE77047FEE7FEE7FEE7FEE7C0
:1010AC007047704770477047374B82B01A6842F0F0
:1010BC0001021A605968354A0A405A601A6822F0CF
:1010CC00847222F480321A601A6822F480221A6028
:1010DC005A6822F4FE025A604FF41F029A600022F2
:1010EC00009201921A6842F480321A601A6802F473
:1010FC0000320192009A01320092019A1AB9009AB8
:10110C00B2F5A06FF2D11A6812F4003218BF0122A6
:10111C000192019A012A05D04FF000621C4B9A6093
:10112C0002B070471B4A116841F010011160116840
:10113C0021F003011160116841F0020111605A683D
:10114C005A605A685A605A6842F480625A605A6807
:10115C0022F47C125A605A6842F4E8125A601A68F7
:10116C0042F080721A601A689201FCD55A6822F01B
:10117C0003025A605A6842F002025A605A6802F03E
:10118C000C02082AFAD1C7E7001002400000FFF851
:10119C0000ED00E00020024070B500250C4E0D4C17
:1011AC00A41BA410A54209D100F01AF800250A4E80
:1011BC000A4CA41BA410A54205D170BD56F82530CD
:1011CC0098470135EEE756F8253098470135F2E798
:1011DC00001500080015000800150008041500088B
:1011EC00F8B500BFF8BC08BC9E467047F8B500BF08
:0811FC00F8BC08BC9E467047D8
:101204000DF300000CF300000BF300000AF30000E0
:1012140009F3000008F3000007F30000C8051D0FE0
:1012240000A7E100005F00A9E10000850002EF00D3
:1012340000BF0004EF0000F00013EF0000240116CB
:10124400EF0000590105F300008A0106F30000B025
:101254000107F30000D50108F30000FB0109F300C6
:101264000021020AF3000047020BF300006D020C98
:10127400F3000093020DF30000B9020D14160518D3
:1012840003001C00F087CE37399CEDC3FC0FC03C33
:1012940001E01F81FE1DB9CCFC6E43E01E00E00698
:1012A4000014151601180030060380F03C0383E097
:1012B4001C3700E33807370039E001CC000E00008A
:1012C40070000F8001FC003BE0073700E378043F27
:1012D400C003CE0038700303000020161014011858
:1012E40000001C0000700001C000E700039C01EE38
:1012F4007007B9C01EE7077B9C1DEE7E77B9F9DE47
:10130400E7E77B9F9DEE7E77B9F9DEE716111401BE
:101314001800001D00007E0001FE00E73C039C78DD
:101324000E70F839C0F06707F09C1DE07E77E1F994
:10133400DFC3E77F879DEF8E77BFB9DEFC00001027
:10134400181014001821FF0070FFE0783FF83E00E9
:101354007CFF0F1F67C3C64FE0F21FF8780C7C3088
:1013640001FE0003FF800103C00019F0003C780077
:101374003C3C001808161014011801FE003FFF033E
:10138400FFFF1F807EF8007F8000740FC080FFC0C5
:101394000FFFC03C0F00401800000000300001E0C7
:1013A400000780000C00160C1201187FFF83FFFC5D
:1013B4008C0002300018C000E30007FC003FB000BE
:1013C4001CC0006300010FFFE41FFF80150C120115
:1013D400187FFF87FFFCF0000780003C0001E0005D
:1013E4000F0000780000C000160000FFFFE4FFFFBC
:1013F40080160C1201187FFFC3FFFF8FFFE63FFF2B
:101404009EFFFE7FFFF9FFFFE7FFFF9FFFFE7BFFCD
:10141400F98FFFFE1FFFF0160C1201187FFFC3FFA8
:10142400FF8FFF863FFE1EFFF87FFFE1FFFF87FF70
:10143400FE1FFFF87BFFE18FFFFE1FFFF0160C126B
:1014440001187FFFC3FFFF8FFE063FF81EFFE07FFA
:10145400FF81FFFE07FFF81FFFE07BFF818FFFFE88
:101464001FFFF0160C1201187FFFC3FFFF8FF80651
:101474003FE01EFF807FFE01FFF807FFE01FFF80B3
:101484007BFE018FFFFE1FFFF0160C1201187FFF79
:10149400C3FFFF8FE0063F801EFE007FF801FFE0E0
:1014A40007FF801FFE007BF8018FFFFE1FFFF01671
:1014B4000C1201187FFFC3FFFF8F80063E001EF849
:1014C400007FE001FF8007FE001FF8007BE0018F32
:1014D400FFFE1FFFF0160C1201187FFFC3FFFF8CE5
:1014E400000630001EC0007F0001FC0007F0001F52
:0C14F400C0007B00018FFFFE1FFFF00016
:0415000031010008AD
:041504000D010008CD
:1015080002040608000000000102030401020304AB
:0415180006070809B1
:04000005080010518E
:00000001FF
