:020000040800F2
:1000000000500020F90E00084B0F00084D0F0008AB
:100010004F0F0008510F0008530F000800000000A8
:10002000000000000000000000000000550F000864
:10003000570F000800000000590F00085B0F000870
:10004000490F0008490F0008490F0008490F000830
:10005000490F0008490F0008490F0008490F000820
:10006000490F0008490F0008490F0008490F000810
:10007000490F0008490F0008490F0008490F000800
:10008000490F0008490F0008490F0008490F0008F0
:10009000490F0008490F0008490F0008490F0008E0
:1000A000490F0008490F0008490F0008490F0008D0
:1000B000490F0008490F0008490F0008490F0008C0
:1000C000490F0008490F0008490F0008490F0008B0
:1000D000490F0008490F0008490F0008490F0008A0
:1000E000490F0008490F0008490F000800000000F0
:1000F0000000000000000000000000000000000000
:0C01000000000000000000005FF808F1A3
:10010C0010B5054C237833B9044B13B10448AFF345
:10011C0000800123237010BD14000020000000009B
:10012C009410000808B5034B1BB103490348AFF307
:10013C00008008BD0000000018000020941000088A
:10014C00CB782DE9F041DA0648BF8A780E8803F0A7
:10015C000F0548BF154316F0FF0F1AD000214FF0C2
:10016C00010E4FF00F0C02680EFA01F737EA060485
:10017C000BD18C000CFA04F822EA080205FA04F4FC
:10018C00282B42EA040225D1476101310829EBD121
:10019C000260FF2E1CD900214FF0010E4FF00F0C06
:1001AC00426801F108040EFA04F434EA06070BD194
:1001BC008F000CFA07F822EA080205FA07F7282B39
:1001CC0042EA07020AD1446101310829E9D14260AF
:1001DC00BDE8F081482B08BF0761D6E7482B08BF64
:1001EC000461F1E770B586B00446868801A80D4617
:1001FC0000F09EF8039A2E4926F03F06B2FBF1F16F
:10020C003604360C88B20643A6802388294E23F088
:10021C0001031B041B0C23802B68B34223D85B0007
:10022C00B2FBF3F39BB2042B38BF0423013080B232
:10023C002084A3832388AA889BB243F001032380E4
:10024C002388698923F4816323F002031B040A4386
:10025C001B0C13439BB223802A89AB8913439BB29B
:10026C00238106B070BD4BF6FF70EE8886421BBF33
:10027C001920434303EB4303B2FBF3F30BBFB2FB75
:10028C00F3F39BB29BB243F48043C3F30B020AB962
:10029C0043F001034FF496724A434FF47A7192FB88
:1002AC00F1F2013292B243F400432284C1E700BF61
:1002BC0040420F00A0860100038821B19BB243F09D
:1002CC0001030380704723F001031B041B0CF8E7A8
:1002DC00038821B19BB243F480730380704723F4ED
:1002EC0080731B041B0CF8E7038821B19BB243F409
:1002FC0000730380704723F400731B041B0CF8E796
:10030C000182704722B141F0010189B2018270472C
:10031C0001F0FE01F9E7838A008B9BB243EA0043AC
:10032C0021F07F401840431A584258417047000052
:10033C001C4A10B5536803F00C03042B01D0082B96
:10034C001FD0194B03605368184CC3F30313E15CC3
:10035C000368CB4043605168C1F30221615C23FA0E
:10036C0001F181605168C1F3C221615CCB40C36073
:10037C0052680F49C2F381328A5CB3FBF2F303611A
:10038C0010BD53685168C3F38343CC0303F10203DC
:10039C0002D408494B43D5E751688903F9D4024983
:1003AC00F8E700BF0010024000127A0004000020A1
:1003BC000000002000093D00044B9A6911B1104364
:1003CC009861704722EA0000FAE700BF0010024073
:1003DC00044BDA6911B11043D861704722EA00006E
:1003EC00FAE700BF001002407FB5104B104A039390
:1003FC0010238DF8103000238DF8113008238DF860
:10040C0012306B46516805901068127A03C31A704B
:10041C0000F0F0FC1E231422694603A800F084FBB4
:10042C0000F074FC07B05DF804FB00BFAC100008D2
:10043C002D1800082DE9F04F88468FB000286DD09C
:10044C000768002F00F0CD808568002D00F0CB8070
:10045C00A9680291002900F0C8802979B5F800E05C
:10046C0011F0010408946C8801F0030112BFA4463A
:10047C00F446A6468C1E059400293FD0CC1E614242
:10048C006141049108F1010189B217F8019008F15A
:10049C00020189B27C5608F1040189B217F801B047
:1004AC0008F1030189B27D5617F808601544059AC6
:1004BC00ADB2012A24D8ACEB050292B20FFA82FA43
:1004CC00921B12B20192049AA9EB0404F2B1E11A44
:1004DC00714489B20CB2A1EB090109B2BAF1000F57
:1004EC0002DA019B002B04DBE2451ADD019B9C45E3
:1004FC0017DA5E4510D205EB0B000EE00121C0E7C8
:10050C002AB20192AA190FFA82FADCE71C1BA4B2D8
:10051C0021B24C4424B2E1E7A81900B20FB0BDE8F7
:10052C00F08F002C01DA0029E3DB03797445099381
:10053C0001DD8E45DDDB002303938BB20693E31ABA
:10054C00013B0C93069ABDF80C3002EB03091FFA21
:10055C0089F90FFA89F29442CBDD049A12B90C9AFC
:10056C00D31A9BB273430A930023BDF8042007925D
:10057C00AAEB0202013A0B9207999AB2881880B240
:10058C0001B28A4503DC039B01330393DAE74FF096
:10059C00800C059901299CBF0B998A1A0A9998BF5E
:1005AC0092B20A4408F1050189B207EBE20E02F09F
:1005BC0007024CFA02FC1EF80120099902EA0C020F
:1005CC00890614D5B2FA82F2520908990D9331B109
:1005DC0001464846029B98470D9B0133CCE74946A0
:1005EC00F8E738469AE7284698E7029896E7002AF3
:1005FC00F3D0EAE7F0B585B010B9002005B0F0BD36
:10060C000029FAD0FE238DF80030E0238DF8043059
:10061C008DF80B30C0238DF80C300023FC25F8240A
:10062C00F0220B704B708B70CB708DF801508DF8E5
:10063C00085005788DF802404FFA85FE9E458DF8DE
:10064C0003208DF809408DF80A2001F103063FDAEA
:10065C0002AA1DF8037013F802C02F40BC45DCB28F
:10066C0032D1FF22C3F107031A4103460EEA0202FC
:10067C00C4F10504C7B2E4B20A70C7F1020E5A788D
:10068C000EEB0300C0B2002AB7D002F0C002802AE1
:10069C00B3D1324612F8015C92F800C0AD0845EABD
:1006AC008C1502F801599142F4D10A789201D2B218
:1006BC000A7013F8015F05F03F052A430A70DA1B34
:1006CC00D2B29442DBD899E70133052BC1D194E720
:1006DC000D70012092E72DE9F04120B329B10026DD
:1006EC0001F1030EF4B2944202D30020BDE8F08174
:1006FC0004EB440403EB4404651E4F1E054417F839
:10070C00018F15F801CFE0450BD17745F7D1631D6B
:10071C0004349BB2A4B2C15C005D40EA0120BDE888
:10072C00F0810136DEE7BDE8F0812DE9F04F8BB0AA
:10073C009846149E8346002800F0B580002900F0EE
:10074C00B280002E00F0AF808368002B00F0AB80ED
:10075C000568002D00F0A7802B78C82B40F0A380F3
:10076C0090F906302C7904936B78E8780593AB7884
:10077C003280032240EA04200690580090FBF2F2EB
:10078C000024DB43C24689464FF4FA470292BDF877
:10079C000820F480B480A6F8028003920194079399
:1007AC0099F80030BBB99DF8101001984A008442AA
:1007BC00ACBF1419141890443288BFB2A8EB0708C8
:1007CC00521A7F1AB480A6F80680328077801846B9
:1007DC000BB0BDE8F08F0A2B15D1079B09F101096D
:1007EC009A449BF804300FFA8AFA5A0644BF9BF9D4
:1007FC000530E41A019B48BF24B2A342B8BF23467C
:10080C0000240193CCE709A94846FFF7F3FE034601
:10081C000028DCD08144059B069A09A92846FFF7DD
:10082C005AFF80B3431C9BB2E95C831C9BB215F846
:10083C0000C0EA56C31C04309BB280B215F903E029
:10084C002B5C8A1A9C4598BFE4189BF8043088BF2F
:10085C0064445B0648BF9BF90530AAEB020224B244
:10086C0092B248BFE41813B248BF24B29F42A8BF4B
:10087C001F460B447444984524B291DA02EB0108EC
:10088C000FFA88F88CE7039B1C44029B24B2534458
:10089C004345C2BF039B03EB0A080FFA88F8574580
:1008AC00A8BF57467CE7012391E72DE9F04F984606
:1008BC0085B0002800F0C280002900F0BF8090F8BD
:1008CC0004E0B1F90070B1F90240CD8889881EF0BE
:1008DC00010F15BF26463E463C460F461CBF2F4611
:1008EC000D461EF0030E0388B0F802C002D0BEF114
:1008FC00030F03D1ACEB05010C1B24B2AEF1020EBD
:10090C00BEF1010F98BFD91BD0F808A09CBF8E1B5D
:10091C0036B2BAF1000F00F0918037443FB2254453
:10092C00002F2DB202DA002EC0F288809F4202DD29
:10093C00B342C0F28380002D01DA002C7EDB6545CA
:10094C0001DDA4457ADB9F42CABF1FB201230023FD
:10095C00002EB6BF0026012131466545CABF0020D6
:10096C0001200FFA8CF5002CB8BF0024B8FA88F8D7
:10097C00B4BFA3464FF0010B012A01904FEA58185F
:10098C0013D1AC422ADA30461FFA84FB08E01FFA76
:10099C0080F9484642465946D04709F1010000B259
:1009AC00B842F4DB013424B2EBE721B1A146B2B278
:1009BC0002924D4516DC23B1A1467B1E9BB24D45E0
:1009CC001DDCBBF1000F03D03046A4B2874223DC00
:1009DC00019B1BB1013DADB2B74227DC002005B035
:1009EC00BDE8F08F1FFA89F90393494642460298F5
:1009FC0009F10109D0470FFA89F9039BD9E71FFACE
:100A0C0089F9494618460293424609F10109D04733
:100A1C000FFA89F9029BD2E71FFA80F94846424641
:100A2C002146D04709F1010000B2CFE7B6B23046FB
:100A3C00424629460136D04736B2CDE70120CEE7F3
:100A4C002DE9F04F0E4689B093469846054600288E
:100A5C0068D0002966D08368002B63D00768002F0C
:100A6C0060D03B78C82B04D00024204609B0BDE8E8
:100A7C00F08F7B783A790193BB780093FB7843EA4B
:100A8C0002230293009B4FEA4309032399FBF3F9DA
:100A9C001FFA89FAAAF104039BB203935C463378DC
:100AAC00002BE2D00A2B06D1009B0136DB43984485
:100ABC000FFA88F8F2E705A93046FFF79BFD0028EE
:100ACC00D2D005A90644019B029A3846FFF703FED3
:100ADC00014688B12B79224613F0400F2846434635
:100AEC0006D0FFF7A7FC95F90540044424B2D6E7DD
:100AFC00FFF7A0FC0446D2E7B9F1050F10DDA31CEB
:100B0C00ADF81830BDF80C300246ADF81C3006A913
:100B1C000346A868ADF81A80ADF81EA0FFF7C5FE15
:100B2C005444E3E70124A0E72DE9FF410E461746A4
:100B3C009846054628B329B384682CB30479E40697
:100B4C001CD502AC0094FFF7F0FD2B79214613F075
:100B5C0020030EBF1A4600230122A868FFF7A5FE4A
:100B6C0043463A4631462846FFF76AFF95F9063068
:100B7C0000EB430000B204B0BDE8F081FFF760FF6A
:100B8C00F9E7F8E70846F6E72046F4E730B5012127
:100B9C0087B005460820FFF70FFC01214FF4001029
:100BAC00FFF716FCC023ADF8043003238DF8063094
:100BBC001C2301A912488DF80730FFF7C1FA002356
:100BCC00ADF80C304BF6FF73ADF80E301023ADF8CA
:100BDC0010304FF48063ADF812304FF4804306AC04
:100BEC0044F8105D074D01212846ADF81430FFF78D
:100BFC0063FB21462846FFF7F5FA07B030BD00BF6E
:100C0C00000C0140005400401FB50D48FFF7BEFF1B
:100C1C0000F0FCF88023ADF8043040230024ADF83C
:100C2C000630084B8DF80840039300F0E3F800F011
:100C3C006DF801A8FFF7D8FB204604B010BD00BF2B
:100C4C00801A0600C90E00086423002182B00191AD
:100C5C00019AB2F57A6F03D3013BF8D102B0704719
:100C6C00019A01320192F3E770B501210546234840
:100C7C00FFF72EFB44F62164214E31461F48FFF747
:100C8C004AFB50B3002278211C48FFF73BFB44F68B
:100C9C0021641C4E31461948FFF73DFB08B3002177
:100CAC001648FFF72DFB44F62164174E31461348C6
:100CBC00FFF731FBC8B129461048FFF721FB44F67A
:100CCC002164114D29460D48FFF725FB88B1012100
:100CDC000A48FFF709FB002070BD013CCDD1012073
:100CEC0070BD013CD6D1022070BD013CDED1032089
:100CFC0070BD013CE6D1042070BD00BF0054004023
:100D0C000100030082000700840007002DE9F04178
:100D1C002120FFF7A9FF0020FFF7A6FF7F20FFF798
:100D2C00A3FF2220FFF7A0FF0020FFF79DFF072065
:100D3C00FFF79AFF01212A48FFF7CAFA44F621640B
:100D4C00284D29462648FFF7E6FAA0B30022782161
:100D5C002348FFF7D7FA44F62164234D294620484F
:100D6C00FFF7D9FA60B340211D48FFF7C9FA44F6E2
:100D7C0021641E4E1A4D31462846FFF7CCFA20B39B
:100D8C0000241B4EDFF85880184F315D4046FFF7AA
:100D9C00B7FA44F6216539461148FFF7BCFAC8B1D9
:100DAC000134B4F5806FF0D101210D48FFF79CFAA6
:100DBC000020BDE8F081013CC3D10120BDE8F081E9
:100DCC00013CCBD10220BDE8F081013CD3D1032002
:100DDC00BDE8F081013DDED10420BDE8F08100BF0B
:100DEC00005400400100030082000700840007004B
:100DFC003000002000231946034A99540133B3F5FF
:100E0C00806FFAD1704700BF3000002008B5FFF7A3
:100E1C001BFFAE20FFF728FF0020FFF725FF102057
:100E2C00FFF722FF4020FFF71FFF8120FFF71CFF79
:100E3C00CC20FFF719FFA120FFF716FFC820FFF702
:100E4C0013FFA620FFF710FFA420FFF70DFFA8202B
:100E5C00FFF70AFF3F20FFF707FFD320FFF704FF40
:100E6C000020FFF701FFD520FFF7FEFEF020FFF773
:100E7C00FBFED920FFF7F8FEF120FFF7F5FEDA2094
:100E8C00FFF7F2FE1220FFF7EFFEDB20FFF7ECFE80
:100E9C004020FFF7E9FE2020FFF7E6FE0020FFF7D9
:100EAC00E3FE8D20FFF7E0FE1420FFF7DDFEAF2000
:100EBC00FFF7DAFEFFF7C8FE002008BD7F2810B54B
:100ECC000ED83F290CD8CB0800EBC3100123064CDD
:100EDC0001F0070180B28B40215C12B10B4323540B
:100EEC0010BD21EA0303FAE730000020DFF834D00C
:100EFC00002103E00C4B5B58435004310B480C4B66
:100F0C0042189A42F6D30B4A02E0002342F8043B03
:100F1C00094B9A42F9D300F01BF800F091F8FFF757
:100F2C0073FE70470050002040180008000000209D
:100F3C00140000201400002030040020FEE770474D
:100F4C00FEE7FEE7FEE7FEE7704770477047704725
:100F5C00374B82B01A6842F001021A605968354A60
:100F6C000A405A601A6822F0847222F480321A60A5
:100F7C001A6822F480221A605A6822F4FE025A601F
:100F8C004FF41F029A600022009201921A6842F4F8
:100F9C0080321A601A6802F400320192009A01320F
:100FAC000092019A1AB9009AB2F5A06FF2D11A68A0
:100FBC0012F4003218BF01220192019A012A05D0C5
:100FCC004FF000621C4B9A6002B070471B4A1168CC
:100FDC0041F010011160116821F0030111601168DA
:100FEC0041F0020111605A685A605A685A605A6896
:100FFC0042F480625A605A6822F47C125A605A6831
:10100C0042F4E8125A601A6842F080721A601A6848
:10101C009201FCD55A6822F003025A605A6842F0D9
:10102C0002025A605A6802F00C02082AFAD1C7E789
:10103C00001002400000FFF800ED00E0002002402C
:10104C0070B500250C4E0D4CA41BA410A54209D163
:10105C0000F01AF800250A4E0A4CA41BA410A54255
:10106C0005D170BD56F8253098470135EEE756F896
:10107C00253098470135F2E7381800083818000871
:10108C00381800083C180008F8B500BFF8BC08BCBC
:10109C009E467047F8B500BFF8BC08BC9E4670472A
:1010AC00C805135F00200000003F0221000000452E
:1010BC0002220000004E0223000000550224000012
:1010CC00006802250000007A02260000008D02272D
:1010DC00000000A00228000000A60229000000B1B8
:1010EC00022A000000BB022B000000C5022C0000ED
:1010FC0000D2022D000000D8022E000000DE022FCC
:10110C00000000E40230000000F302310000000493
:10111C0003320000000E03330000001E03340000F5
:10112C00002E03350000003F03360000004F03374C
:10113C0000000060033800000071033900000081DA
:10114C00033A00000091033B00000099033C0000AF
:10115C0000A2033D000000AE033E000000B6033FBA
:10116C00000000C20340000000D00341000000E674
:10117C000342000000FA03430000000C044400008A
:10118C00001E0445000000300446000000420447E5
:10119C00000000530448000000650449000000777B
:1011AC00044A0000007F044B0000008F044C000038
:1011BC0000A2044D000000B3044E000000C6044F12
:1011CC00000000D80450000000EA0451000000FBAD
:1011DC0004520000001105530000002405540000C7
:1011EC00003505550000004705560000005805570E
:1011FC000000006B055800000085055900000098A0
:10120C00055A000000AB055B000000BC055C00004B
:10121C0000C7055D000000D6055E000000E1055F1B
:10122C00000000E90560000000EF0561000000F619
:10123C000562000000030663000000140664000051
:10124C00002006650000002F06660000003B0667C4
:10125C000000004A06680000005906690000006A98
:10126C00066A00000072066B0000007E066C00002F
:10127C00008F066D00000097066E000000A8066F38
:10128C00000000B50670000000C10671000000D21D
:10129C000672000000E10673000000ED0674000009
:1012AC0000F90675000000060776000000120777AB
:1012BC000000001F07780000003107790000003E95
:1012CC00077A00000050077B0000005C077C0000E0
:1012DC000067077D0000006F077E0000007A0701A1
:1012EC0001010004000309090105FFB68360040431
:1012FC000C0106FFB90C0909010E0C60CC7FF18CB6
:10130C00198318FFE3306300090B0A010B083FF83F
:10131C00180C03F8060301FF82000C0909010EF0FA
:10132C00C9989B0FB006004F0C918918F00C090955
:10133C00010D3E0330300786EC6C76C3CE3C7EF05C
:10134C0002040C0103FA040C0B0005366CCCCCC661
:10135C0063030C0B0105D9B6DB6F4006060A0109C5
:10136C00315FCC6CA0080809010A18181818FF186E
:10137C0018180204020105F60501050108F803021C
:10138C00020105F8070B0A0007061830C1830C1878
:10139C0060C3800A0909010C7FB87C0F03C0F03CC4
:1013AC000F877F800409090006F3333333300909B2
:1013BC0009010AFE4180C06070E0E1C0FF800909AC
:1013CC0009010BFF41C06077F00C0603FF000A090E
:1013DC0009010C0703C1B0CC6330CFFC0C0300092E
:1013EC000909010BFFE0301FE8180C0603FF000A87
:1013FC000909010C7FB80C03FEC1F03C0F877F80FC
:10140C000A0909000AFFC070180C070380C0703865
:10141C0000090909010B7F71F07C37F60F07837FF8
:10142C0080090909010C7F60F0783FF80C0703FF75
:10143C00000307070105F801F00309070105F8018E
:10144C00B280080709010A031FF8E07C1F03080398
:10145C00060109FF00FF080709010AC0F81F031F56
:10146C00F8C0080909010AFE8703033E300030303A
:10147C000D0A09010F7FF200F7F7B1BD8DECEF7D7E
:10148C00D800C023FE000D0909000D0F007C076079
:10149C0033838C1871FF8C0EE0380B0909010DFF9A
:1014AC00981B03606FFD81F01E07FFC00B0909013B
:1014BC000C7FDC0300600C01803007007FE00B091F
:1014CC0009010DFFDC1F81F03E07C0F81F07FFC0AC
:1014DC000B0909010CFFD80300600FF180300600E6
:1014EC00FFE00A0909010CFFF80E0380FFB80E0398
:1014FC0080E0000B0909010D7FDC0300600C7F818B
:10150C00F03F077FE00B0909010DC0780F01E03FA8
:10151C00FF80F01E03C0600209090105FFFFC0092E
:10152C000909000B0180C06030180C06C7FF800C45
:10153C000909010DE1CE38E70EE0FC0E70E38E1FB9
:10154C00E0600A0909010BE0380E0380E0380E0355
:10155C00FEFFC00C0909010FE03F07F07F8FF9BEB9
:10156C00DBE73E73E0300B0909010DE07E0FE1FE75
:10157C003EE7CEF8FF0FE0E00B0909010D7FDC1B05
:10158C0001E03C0780F01F067FC00A0909010CFF2F
:10159C00B83E0F83E0FFFE0380E0000D0A09010D49
:1015AC007FC706301980CC066073031C387F000F90
:1015BC00C00C0909010DFF8E0CE0CE0CFFCE70E1C2
:1015CC008E0EE0700A0909010C7FF80C03007F8075
:1015DC00300C03FF800B0909000BFFE1C03807003A
:1015EC00E01C0380700E000A0909010CC0F03C0FCE
:1015FC0003C0F03C0F877F800C0909000CE07606D5
:10160C0070E30C31C1981B00F00E00120909001296
:10161C00E1C1D878661E19CD8C33330CCDC1E16095
:10162C0078781C1C000C0909000CE0730C1980F074
:10163C000F01F839C70CE0700C0909000CE0770EAB
:10164C0039C1B80F006006006006000A0909010CD8
:10165C00FFC07030381C0E070380FFC0040C0B0158
:10166C0006FCCCCCCCCCCF070B0AFF06E0C18183A7
:10167C0003060C0C1818040C0B0107F3333333332B
:10168C003F05040A010623B510080100010AFF03F7
:10169C00030A0004CC80090707010AFF01807FFCC4
:1016AC001E0FFE090A0A010AC060301FEC1E0F074C
:1016BC0083C3FF800807070109FFC0C0C0C0C0FF7B
:1016CC00080A0A010B030303FFC3C3C3C3C3FF0808
:1016DC000707010AFFC3C3FFC0C0FF080A0A0008BE
:1016EC003F6160FE606060606060080A07010AFF8D
:1016FC00C3C3C3C3C3FF0383FF090A0A010AC06043
:10170C00301FEC3E0F0783C1E0C0020A0A0104F34C
:10171C00FFF0040D0AFF04330333333333F0090AAB
:10172C000A010AC0603018ECC6C3E1B8C761C00238
:10173C000A0A0104FFFFF00D0707010FFFF630F155
:10174C00878C3C61E30F1860090707010AFF61F001
:10175C00783C1E0F06080707010AFFC3C3C3C3C3A7
:10176C00FF090A07010AFF61F0783C1E1FFD80C0CB
:10177C006000080A07010AFFC3C3C3C3C3FF030306
:10178C00030707070108FF8B060C18300008070732
:10179C00010AFFC0C0FF0303FF07090900073063FC
:1017AC00F983060C183E080707010AC3C3C3C3C359
:1017BC00C3FF0907070009E1B1D8C66360F0700EDA
:1017CC000707000EE71D9E6679996C3CB0F3C18E3D
:1017DC00000907070009E3B98D8381E3BB8E0A0A70
:1017EC0007FF0970CC7318661B03C0E0187C3E0021
:1017FC00080707010AFF060C3870E0FF040C0B0108
:10180C000676666CE66667020B090104FFFFFC04B2
:10181C000C0B0106C6666366666E0602040006764D
:0C182C00704C464320466F6E74000000B4
:041838003101000872
:04183C000D01000892
:101840000204060800000000010203040102030470
:041850000607080976
:0400000508000EF9E8
:00000001FF
