:020000040800F2
:1000000000500020B111000803120008051200087A
:1000100007120008091200080B1200080000000077
:100020000000000000000000000000000D120008A9
:100030000F1200080000000011120008131200083F
:100040000112000801120008011200080112000844
:100050000112000801120008011200080112000834
:100060000112000801120008011200080112000824
:100070000112000801120008011200080112000814
:100080000112000801120008011200080112000804
:1000900001120008011200080112000801120008F4
:1000A00001120008011200080112000801120008E4
:1000B00001120008011200080112000801120008D4
:1000C00001120008011200080112000801120008C4
:1000D00001120008011200080112000801120008B4
:1000E00001120008011200080112000800000000BF
:1000F0000000000000000000000000000000000000
:0C01000000000000000000005FF808F1A3
:10010C0010B5054C237833B9044B13B10448AFF345
:10011C0000800123237010BD14000020000000009B
:10012C004C13000808B5034B1BB103490348AFF34C
:10013C00008008BD00000000180000204C130008CF
:10014C00CB782DE9F041DA0648BF8A780E8803F0A7
:10015C000F0548BF154316F0FF0F1AD000214FF0C2
:10016C00010E4FF00F0C02680EFA01F737EA060485
:10017C000BD18C000CFA04F822EA080205FA04F4FC
:10018C00282B42EA040225D1476101310829EBD121
:10019C000260FF2E1CD900214FF0010E4FF00F0C06
:1001AC00426801F108040EFA04F434EA06070BD194
:1001BC008F000CFA07F822EA080205FA07F7282B39
:1001CC0042EA07020AD1446101310829E9D14260AF
:1001DC00BDE8F081482B08BF0761D6E7482B08BF64
:1001EC000461F1E770B586B00446868801A80D4617
:1001FC0000F09EF8039A2E4926F03F06B2FBF1F16F
:10020C003604360C88B20643A6802388294E23F088
:10021C0001031B041B0C23802B68B34223D85B0007
:10022C00B2FBF3F39BB2042B38BF0423013080B232
:10023C002084A3832388AA889BB243F001032380E4
:10024C002388698923F4816323F002031B040A4386
:10025C001B0C13439BB223802A89AB8913439BB29B
:10026C00238106B070BD4BF6FF70EE8886421BBF33
:10027C001920434303EB4303B2FBF3F30BBFB2FB75
:10028C00F3F39BB29BB243F48043C3F30B020AB962
:10029C0043F001034FF496724A434FF47A7192FB88
:1002AC00F1F2013292B243F400432284C1E700BF61
:1002BC0040420F00A0860100038821B19BB243F09D
:1002CC0001030380704723F001031B041B0CF8E7A8
:1002DC00038821B19BB243F480730380704723F4ED
:1002EC0080731B041B0CF8E7038821B19BB243F409
:1002FC0000730380704723F400731B041B0CF8E796
:10030C000182704722B141F0010189B2018270472C
:10031C0001F0FE01F9E7838A008B9BB243EA0043AC
:10032C0021F07F401840431A584258417047000052
:10033C001C4A10B5536803F00C03042B01D0082B96
:10034C001FD0194B03605368184CC3F30313E15CC3
:10035C000368CB4043605168C1F30221615C23FA0E
:10036C0001F181605168C1F3C221615CCB40C36073
:10037C0052680F49C2F381328A5CB3FBF2F303611A
:10038C0010BD53685168C3F38343CC0303F10203DC
:10039C0002D408494B43D5E751688903F9D4024983
:1003AC00F8E700BF0010024000127A0004000020A1
:1003BC000000002000093D00044B9A6911B1104364
:1003CC009861704722EA0000FAE700BF0010024073
:1003DC00044BDA6911B11043D861704722EA00006E
:1003EC00FAE700BF00100240F0B50C468BB0194F75
:1003FC00642C05AD06460FCF28BF64240FC514210D
:10040C003B68B4FBF1F12B600523B1FBF3F303EB79
:10041C008303C91AC9B20AAB03EB810103AB51F8D0
:10042C00144C0093002321461A46304600F0EEFC93
:10043C00B268BDF81210538812885B1ABDF8101000
:10044C001BB2521A12B22146304600F0C6FC0BB059
:10045C00F0BD00BF641300082DE9F047304B94B099
:10046C000193402300272F4D07AC064603908DF8CF
:10047C0008300FCD0FC40FCD0FC40FCD0FC42B6898
:10048C0001A904A823608DF809708DF80A7000F09A
:10049C0092FC254B3C4604930A238DF81530062319
:1004AC000427A146B6F900508DF816300DF11C0842
:1004BC0000F0FCFD322300224FF2EB1101A88DF865
:1004CC00097000F08AFC322302464FF2F30101A8B6
:1004DC0000F083FC6423E208B2FBF3F103FB11216F
:1004EC0001A8C9B28DF809904FF0000AFFF77CFF04
:1004FC002A4658F82A10082304A800F06EFC0AF1CA
:10050C00010ABAF10D0F0246F3D10028AABF05F17A
:10051C00FF353588ADB22DB200F054FD0134C7E77C
:10052C00AC13000878130008FF1400082DE9F04FF5
:10053C0088468FB000286DD00768002F00F0CB8064
:10054C008568002D00F0C980A9680291002900F08F
:10055C00C6802979B5F800E011F0010408946C8884
:10056C0001F0030112BFA446F446A6468C1E059466
:10057C0000293FD0CC1E61426141049108F1010178
:10058C0089B217F8019008F1020189B27C5608F182
:10059C00040189B217F801B008F1030189B27D5644
:1005AC0017F808601544059AADB2012A24D8ACEBB3
:1005BC00050292B20FFA82FA921B12B20192049ABD
:1005CC00A9EB0404F2B1E11A714489B20CB2A1EBAB
:1005DC00090109B2BAF1000F02DA019B002B04DB0E
:1005EC00E2451ADD019B9C4517DA5E4510D205EBFE
:1005FC000B000EE00121C0E72AB20192AA190FFAF2
:10060C0082FADCE71C1BA4B221B24C4424B2E1E711
:10061C00A81900B20FB0BDE8F08F002C01DA002948
:10062C00E3DB03797445099301DD8E45DDDB0023A3
:10063C0003938BB20693E31A013B0C93069ABDF815
:10064C000C3002EB03091FFA89F90FFA89F2944274
:10065C00CBDD049A12B90C9AD31A9BB273439BB29A
:10066C000A930023BDF804200792AAEB0202013A78
:10067C000B9207999AB2501880B201B28A4503DCEA
:10068C00039B01330393D9E7059901299CBF0B996F
:10069C008A1A0A9998BF92B20A4491B208F10502DB
:1006AC0002EBD102C94392B2BA5C01F007010A41D4
:1006BC000999D2B2890614D5D24302F001020899E5
:1006CC000D9331B101464846029B98470D9B01336F
:1006DC00CFE74946F8E738469CE728469AE7029860
:1006EC0098E712F00102F2D0E9E72DE9FF41044648
:1006FC0018B9002004B0BDE8F0810029F9D000231E
:10070C000B704B708B70CB700078CD1C47B29F4236
:10071C0002DB08700120EDE74FF0FE084FF0F00E01
:10072C004FF0E00CF826FC228DF804804FF0C00846
:10073C008DF801E08DF80AE08DF800C08DF80260AC
:10074C008DF803208DF808808DF809C08DF80B60AA
:10075C008DF80C200DF1080E1DF8036013F80EC077
:10076C000640B445DAB229D1FF260333901C46FA71
:10077C0003F301323B40D2B2C0B20B70224494421C
:10078C00B8D014F8013F002BB3D003F0C003802B7A
:10079C00AFD12B4613F8016C1F78B60846EA8716C2
:1007AC0003F801699942F5D10B789B01DBB20B7010
:1007BC00267806F03F0633430B70E0E70133052B38
:1007CC00CAD196E72DE9F04788B3F9B100264FF06E
:1007DC00020E013A92B2941B94FBFEF43444A4B280
:1007EC0004EB440503EB4505ADB205F104080F1D00
:1007FC0000EB080C0CF1FF3C17F801AD9CF80090D5
:10080C00CA4506D2013CA2B29642E4D90020BDE80A
:10081C00F08702D90134A6B2F6E7B942EAD1053520
:10082C00ADB21FFA88F3415DC05C40EA0120BDE81F
:10083C00F0872DE9F04F8BB09846149E8346002824
:10084C0000F0B580002900F0B280002E00F0AF80DF
:10085C008368002B00F0AB800568002D00F0A780AA
:10086C002B78C82B40F0A38090F906302C79049398
:10087C006B78E8780593AB783280032240EA042049
:10088C000690580090FBF2F20024DB43C2468946E6
:10089C004FF4FA470292BDF80820F480B480A6F811
:1008AC00028003920194079399F80030BBB99DF82C
:1008BC00101001984A008442ACBF141914189044CB
:1008CC003288BFB2A8EB0708521A7F1AB480A6F878
:1008DC0006803280778018460BB0BDE8F08F0A2B6B
:1008EC0015D1079B09F101099A449BF804300FFAC2
:1008FC008AFA5A0644BF9BF90530E41A019B48BF9B
:10090C0024B2A342B8BF234600240193CCE709A923
:10091C004846FFF7EAFE03460028DCD08144059BDD
:10092C00069A09A92846FFF74DFF80B3431C9BB2DA
:10093C00E95C831C9BB215F800C0EA56C31C04305A
:10094C009BB280B215F903E02B5C8A1A9C4598BFC8
:10095C00E4189BF8043088BF64445B0648BF9BF9DD
:10096C000530AAEB020224B292B248BFE41813B2CB
:10097C0048BF24B29F42A8BF1F460B4474449845FD
:10098C0024B291DA02EB01080FFA88F88CE7039B8A
:10099C001C44029B24B253444345C2BF039B03EB4C
:1009AC000A080FFA88F85745A8BF57467CE7012379
:1009BC0091E72DE9F04F984685B0002800F0C280F1
:1009CC00002900F0BF8090F804E0B1F90070B1F993
:1009DC000240CD8889881EF0010F15BF26463E4681
:1009EC003C460F461CBF2F460D461EF0030E0388D7
:1009FC00B0F802C002D0BEF1030F03D1ACEB05017D
:100A0C000C1B24B2AEF1020EBEF1010F98BFD91B24
:100A1C00D0F808A09CBF8E1B36B2BAF1000F00F0C4
:100A2C00918037443FB22544002F2DB202DA002EBC
:100A3C00C0F288809F4202DDB342C0F28380002D59
:100A4C0001DA002C7EDB654501DDA4457ADB9F4293
:100A5C00CABF1FB201230023002EB6BF00260121FE
:100A6C0031466545CABF002001200FFA8CF5002CD9
:100A7C00B8BF0024B8FA88F8B4BFA3464FF0010BF6
:100A8C00012A01904FEA581813D1AC422ADA3046A9
:100A9C001FFA84FB08E01FFA80F948464246594683
:100AAC00D04709F1010000B2B842F4DB013424B2A2
:100ABC00EBE721B1A146B2B202924D4516DC23B14F
:100ACC00A1467B1E9BB24D451DDCBBF1000F03D034
:100ADC003046A4B2874223DC019B1BB1013DADB271
:100AEC00B74227DC002005B0BDE8F08F1FFA89F96A
:100AFC00039349464246029809F10109D0470FFA7F
:100B0C0089F9039BD9E71FFA89F9494618460293DC
:100B1C00424609F10109D0470FFA89F9029BD2E745
:100B2C001FFA80F9484642462146D04709F1010098
:100B3C0000B2CFE7B6B23046424629460136D0471E
:100B4C0036B2CDE70120CEE72DE9F04F0E4689B045
:100B5C00934698460546002868D0002966D08368DD
:100B6C00002B63D00768002F60D03B78C82B04D0D3
:100B7C000024204609B0BDE8F08F7B783A790193C8
:100B8C00BB780093FB7843EA02230293009B4FEA65
:100B9C004309032399FBF3F91FFA89FAAAF1040319
:100BAC009BB203935C463378002BE2D00A2B06D120
:100BBC00009B0136DB4398440FFA88F8F2E705A94D
:100BCC003046FFF792FD0028D2D005A90644019BC0
:100BDC00029A3846FFF7F6FD014688B12B7922467A
:100BEC0013F0400F2846434606D0FFF79FFC95F9BB
:100BFC000540044424B2D6E7FFF798FC0446D2E73C
:100C0C00B9F1050F10DDA31CADF81830BDF80C3090
:100C1C000246ADF81C3006A90346A868ADF81A8048
:100C2C00ADF81EA0FFF7C5FE5444E3E70124A0E78E
:100C3C002DE9FF410F46054678B379B384687CB340
:100C4C0090F90640A4B222441C44037916B2DB0688
:100C5C0024B21DD50DF1080823463246CDF800808C
:100C6C00FFF7E7FD2A790023C2F340124146A8683A
:100C7C00FFF79FFE2346324639462846FFF764FFAE
:100C8C0095F9063000EB430000B204B0BDE8F081EA
:100C9C0023463246FFF758FFF7E7F6E70846F4E736
:100CAC002046F2E710B509B9002010BD0028FBD092
:100CBC0000244B1E8A1D03F8014F9342FBD17F2861
:100CCC0002D80870012010BDB0F5006F0AD283095C
:100CDC0000F03F0063F03F0360F07F0048700B7042
:100CEC00022010BDB0F5803F0FD2030B63F01F0341
:100CFC000B70C0F3851300F03F0063F07F0360F0CE
:100D0C007F0088704B70032010BDB0F5001F14D20B
:100D1C00830C63F00F030B70C0F3053363F07F0398
:100D2C004B70C0F3851300F03F0063F07F0360F05D
:100D3C007F00C8708B70042010BDB0F1806F19D289
:100D4C00030E63F007030B70C0F3854363F07F035E
:100D5C004B70C0F3053363F07F038B70C0F38513C6
:100D6C0000F03F0063F07F0360F07F000871CB70F0
:100D7C00052010BD002897DB830F63F003030B7075
:100D8C00C0F3056363F07F034B70C0F3854363F0DE
:100D9C007F038B70C0F3053363F07F03CB70C0F31C
:100DAC00851300F03F0063F07F0360F07F00487113
:100DBC000B71062010BD70B169B18B6883600B6834
:100DCC00036091F9053043710B79037191F9063089
:100DDC0083710020704701207047F7B50F46154608
:100DEC001E46044610B9002003B0F0BD8368002BEA
:100DFC00F9D069463846FFF755FF0028F3D0334643
:100E0C002A4669462046FFF713FFEDE7F0B50F467B
:100E1C0085B015461E46044610B9002005B0F0BD3D
:100E2C008368002BF9D002A93846FFF73BFF002856
:100E3C00F3D00A9B2A46009302A933462046FFF7BB
:100E4C00F8FCEBE730B5012187B005460820FFF729
:100E5C00B3FA01214FF40010FFF7BAFAC023ADF832
:100E6C00043003238DF806301C2301A912488DF899
:100E7C000730FFF765F90023ADF80C304BF6FF7324
:100E8C00ADF80E301023ADF810304FF48063ADF890
:100E9C0012304FF4804306AC44F8105D074D01212D
:100EAC002846ADF81430FFF707FA21462846FFF71D
:100EBC0099F907B030BD00BF000C01400054004050
:100ECC001FB50D48FFF7BEFF00F0FCF88023ADF80E
:100EDC00043040230024ADF80630084B8DF8084050
:100EEC00039300F0E3F800F06DF801A8FFF7B4FAF3
:100EFC00204604B010BD00BF801A06008111000806
:100F0C006423002182B00191019AB2F57A6F03D368
:100F1C00013BF8D102B07047019A01320192F3E71C
:100F2C0070B5012105462348FFF7D2F944F6216438
:100F3C00214E31461F48FFF7EEF950B300227821BD
:100F4C001C48FFF7DFF944F621641C4E3146194862
:100F5C00FFF7E1F908B300211648FFF7D1F944F681
:100F6C002164174E31461348FFF7D5F9C8B129460D
:100F7C001048FFF7C5F944F62164114D29460D4878
:100F8C00FFF7C9F988B101210A48FFF7ADF9002034
:100F9C0070BD013CCDD1012070BD013CD6D10220E9
:100FAC0070BD013CDED1032070BD013CE6D10420B4
:100FBC0070BD00BF00540040010003008200070018
:100FCC00840007002DE9F0412120FFF7A9FF002044
:100FDC00FFF7A6FF7F20FFF7A3FF2220FFF7A0FF5C
:100FEC000020FFF79DFF0720FFF79AFF01212A48F9
:100FFC00FFF76EF944F62164284D29462648FFF781
:10100C008AF9A0B3002278212348FFF77BF944F634
:10101C002164234D29462048FFF77DF960B3402118
:10102C001D48FFF76DF944F621641E4E1A4D3146EA
:10103C002846FFF770F920B300241B4EDFF85880C8
:10104C00184F315D4046FFF75BF944F62165394690
:10105C001148FFF760F9C8B10134B4F5806FF0D1D5
:10106C0001210D48FFF740F90020BDE8F081013C5B
:10107C00C3D10120BDE8F081013CCBD10220BDE8F9
:10108C00F081013CD3D10320BDE8F081013DDED1DC
:10109C000420BDE8F08100BF0054004001000300B3
:1010AC00820007008400070030000020002319464E
:1010BC00034A99540133B3F5806FFAD1704700BFDE
:1010CC003000002008B5FFF71BFFAE20FFF728FF0C
:1010DC000020FFF725FF1020FFF722FF4020FFF72D
:1010EC001FFF8120FFF71CFFCC20FFF719FFA12069
:1010FC00FFF716FFC820FFF713FFA620FFF710FF1E
:10110C00A420FFF70DFFA820FFF70AFF3F20FFF7F1
:10111C0007FFD320FFF704FF0020FFF701FFD520C6
:10112C00FFF7FEFEF020FFF7FBFED920FFF7F8FEDD
:10113C00F120FFF7F5FEDA20FFF7F2FE1220FFF7A1
:10114C00EFFEDB20FFF7ECFE4020FFF7E9FE20204E
:10115C00FFF7E6FE0020FFF7E3FE8D20FFF7E0FE31
:10116C001420FFF7DDFEAF20FFF7DAFEFFF7C8FE15
:10117C00002008BD7F2810B50ED83F290CD8CB080D
:10118C0000EBC3100123064C01F0070180B28B4029
:10119C00215C12B10B43235410BD21EA0303FAE77F
:1011AC0030000020DFF834D0002103E00C4B5B58FA
:1011BC00435004310B480C4B42189A42F6D30B4A5D
:1011CC0002E0002342F8043B094B9A42F9D300F0A9
:1011DC001BF800F091F8FFF773FE704700500020E9
:1011EC00001C000800000020140000201400002047
:1011FC0030040020FEE77047FEE7FEE7FEE7FEE75F
:10120C007047704770477047374B82B01A6842F08E
:10121C0001021A605968354A0A405A601A6822F06D
:10122C00847222F480321A601A6822F480221A60C6
:10123C005A6822F4FE025A604FF41F029A60002290
:10124C00009201921A6842F480321A601A6802F411
:10125C0000320192009A01320092019A1AB9009A56
:10126C00B2F5A06FF2D11A6812F4003218BF012245
:10127C000192019A012A05D04FF000621C4B9A6032
:10128C0002B070471B4A116841F0100111601168DF
:10129C0021F003011160116841F0020111605A68DC
:1012AC005A605A685A605A6842F480625A605A68A6
:1012BC0022F47C125A605A6842F4E8125A601A6896
:1012CC0042F080721A601A689201FCD55A6822F0BA
:1012DC0003025A605A6842F002025A605A6802F0DD
:1012EC000C02082AFAD1C7E7001002400000FFF8F0
:1012FC0000ED00E00020024070B500250C4E0D4CB6
:10130C00A41BA410A54209D100F01AF800250A4E1E
:10131C000A4CA41BA410A54205D170BD56F825306B
:10132C0098470135EEE756F8253098470135F2E736
:10133C00F81B0008F81B0008F81B0008FC1B000831
:10134C00F8B500BFF8BC08BC9E467047F8B500BFA6
:08135C00F8BC08BC9E46704776
:1013640044F2000043F2000042F2000041F20000A7
:1013740040F200001EF2000015F00000C2F200006E
:101384005CE50000B9F70000CCF200006DF8000045
:101394002FF5000084F0000079F4000030F1000023
:1013A40098E50000EDF20000C805100800F3F00015
:1013B400003500EBF100005600F6F100007B004020
:1013C400F20000A90041F20000CB0042F20000ED5F
:1013D4000043F200000F0144F2000031010E100E30
:1013E400000E03001E01FE07F83FF0FFC3FF0FFCD1
:1013F4003FF1FFE7FFBFFFFFFC00007800C0120EC3
:101404000D001207F807FF83C0F3C00FC000C0002F
:10141400007F803FF00C0C0201000000030001E09B
:1014240000300012120F0012C0003830071E00FFF7
:10143400E01FF803FF007FC00FF009FC033F01E742
:10144400E07CF83F9F0FF3C00070078E00C1C0001E
:1014540030130C0C01147FFF9FFFFB000367FE6D2C
:10146400FFEFBFFDF7FFBEFFF7CFFCD8001BFFFF68
:101474003FFFC0130C0C01147FFF9FFFFB000367A9
:10148400F06DFF0FBFE1F7FC3EFF87CFE0D8001BF4
:10149400FFFF3FFFC0130C0C01147FFF9FFFFB00F5
:1014A4000367C06DFC0FBF81F7F03EFE07CF80D805
:1014B400001BFFFF3FFFC0130C0C01147FFF9FFFB5
:1014C400FB000366006DE00FBC01F7803EF007CC23
:1014D40000D8001BFFFF3FFFC0130C0B01147FFF5C
:1014E4009FFFFB000360006C000F8001F0003E00D2
:1014F40007C000D8001BFFFF3FFFC0C805200D0038
:101504005CE50000530098E50000FA0015F00000C7
:10151400AA0184F000002F0230F10000B4021EF290
:1015240000001903C2F200008E03CCF20000110483
:10153400EDF20000860479F40000FF042FF50000AA
:101544006405B9F70000E5056DF80000720624246F
:101554001E042801801800003C03C00003C03C00A6
:10156400003C03C00003C03C00003C03C00003C0B7
:101574003C00003C03C0007FFFFFE00FFFFFFF00C3
:10158400FFFFFFF007FFFFFE003FFFFFC003FFFF69
:10159400FC003FFFFFC003FFFFF0003FFFF8000324
:1015A400FFFF00003FFFC0FC03FFFC3FF01FFF876D
:1015B400FF81FFF0FFFC0FFF1FFFE07FF1FF9E079D
:1015C400FE3FF1F01FE3FF3F00FE3EE7F001E3E4DE
:1015D4007F000E3F0FF000E3F9FF000F1FFFE00054
:1015E400F1FFFE000F0FFFC000607FF8000003FF53
:1015F4000000000FC026241C022800000000000088
:1016040000838E0000071E7800003EFBE00000FF10
:10161400DF000003FEF800000FF7C000003FFEE00B
:101624000018FFF78000F3FFBE0003E7FFF0001F80
:10163400CFFF80007F9FFC0001FE3FF80007F87F8A
:10164400F0038FE0F0201F3F8000007E7FF0000158
:10165400FCFF83F007F1FC3FF01FE3E1FFE07F872D
:101664000FCFC1FE0C7F3F83FF11FCFE07FF0FF37A
:10167400FC0FFE3FCFF07FF8FF3FC3FFE3FCFF1FEB
:101684007F8FFFFCF8FE3FFFF7C1FC7F3F9E000108
:10169400FCFE700003FFF0000007FF8000000FFC59
:1016A4000000000FC020201C002000018000000367
:1016B400C0000007E000001FF800003FFC00007FAE
:1016C400FE0000FFFF0001FFFF8003FFFFC007FFD4
:1016D400FFE00FFFFFF01FFFFFF83FFFFFFC7FFF5E
:1016E400FFFEFFFFFFFFFFFFFFFF7FFFFFFE1FFF68
:1016F400FFF81FFFFFF81FFFFFF81FF81FF81FF088
:101704000FF81FF00FF81FF00FF81FF00FF81FF07D
:101714000FF81FF00FF81FF00FF81FF00FF81FFF5E
:10172400FFF80FFFFFF007FFFFE020201C00200060
:10173400003F000001FFE00003FFF00007FFF80096
:101744000FFFFC001FFFFC001FFC7E001FF83E0083
:101754003FF83F003FF83F003FFC7F003FFFFF00A2
:101764003FFFFF003FFFFF003FFFFE007FFFFE0043
:10177400FFFFFE01FFFFFC03FFFFF807FFFFF00F71
:10178400FFFFE01FFFFF003FFF80007FFF0000FF1F
:10179400F00000FFF00000FFF00000FFF00000FF89
:1017A400000000FF000000FF000000FF0000001820
:1017B400201C0018003C0000FF0001FF8001FF8096
:1017C40003FFC003FFC003FFC003FFC003FFC00348
:1017D400FFC0E3FFC7E3FFC7E3FFC7E3FFC7E3FFC0
:1017E400C7E3FFC7E1FF87F1FF8E70FF0E783C1E51
:1017F4003C003C1E00781F81F007FFE003FFC0009F
:101804007E00003C00003C00003C0003FFC003FFDE
:10181400C003FFC0201C1A002007E007C00FF81FF8
:10182400F03FFC3FFC3FFE7FFC7FFFFFFEFFFFFF1E
:10183400FEFFFFFFFFFFC7FFFFFFC7FFFFFF83E7B9
:10184400FFFF83C3FFFF83C3FF7F1181FE0011806D
:101854000000181000007818001FF81FF80FFC3F54
:10186400F00FFC3FF007FE7FE003FFFFC001FFFF26
:101874008000FFFF00007FFE00003FFC00001FF817
:1018840000000FF0000003C000241C1A00243FFFD6
:10189400FFFFC7FFFFFFFEFFFFFFFFFFFFFFFFFF8D
:1018A400000000000000000000000000000FFFFF27
:1018B400FFFFFFFFFFFFFFFFFFFFFFFFFFFFFFFF34
:1018C400F87F801FFF03F801FFF03F801FFF03FF35
:1018D400FFFFF03FFFFFFF87FFFFFFFFFF801FFFBA
:1018E400FFF801FFFFFF801FFE01FFFFFF8007FFDE
:1018F400FFF8007FFFFF8007FFFFFFFFFFFFFFFFF1
:10190400FFFFFF7FFFFFFFE3FFFFFFFC201C1A0028
:10191400200F8000003FC000007FE7C0007FFFFC75
:1019240000F8FFFC00F07FFC00F0FFF800F0FFF08F
:1019340000F0FFE180F0FFC3C0F0FF83C6F0FF01B9
:101944008FF07E180FF07C3C06F0783C60F0701845
:10195400F0F00180F0F003C060F003C600F0018FE6
:1019640000F0000F00F0000600F0006000F000F04E
:1019740000F000F000F0006000F0000000600000E3
:10198400001C211D001C007FE00007FE0000FFF08A
:1019940007FFFFFEFFFFFFFFFFFFFF7FFFFFE000EA
:1019A4000000000000000000003FFFFFC3FFFFFC39
:1019B4003FFFFFC3FFFFFC3C79E3C3C79E3C3C7978
:1019C400E3C3C79E3C3C79E3C3C79E3C3C79E3C375
:1019D400C79E3C3C79E3C3C79E3C3C79E3C3C79EA6
:1019E4003C3C79E3C3C79E3C3C79E3C3FFFFFC3F27
:1019F400FFFFC1FFFFF80FFFFF0020181800203879
:101A0400FFFF1C78FFFF1EF8FFFF1FF8FFFF1FF802
:101A1400FFFF1FF8FFFF1FF8FFFF1FF8FC3F1FF831
:101A2400FC3F1FF8FC3F1FF8E0071FF8E0071FF812
:101A3400E0071FF8E0071FF8FC3F1FF8FC3F1FF802
:101A4400FC3F1FF8FFFF1FF8FFFF1FF8FFFF1FF801
:101A5400FFFF1FF8FFFF1F78FFFF1E38FFFF1C1F4B
:101A6400201C01201FFF80007FFF8001FFFF8703F0
:101A7400FFFF0F07801E1E0F003C1E1E00781E3C39
:101A840000F03E7801E07EF003C0FDE00781FBC07A
:101A94000F03F7FFFE03EFFFFC03DFFFF803BFFFB5
:101AA400F0077FFFFC0EFFFFFC1DFFFFFC3BFFFF69
:101AB4003C77FFFE38EFFFFC71DFFFF8E3BFFFF177
:101AC400C77FFFE38EFFFFC7FDFFFF87F3FFFF071D
:101AD400C7FFFE001FFFFE003FFFFC007FFFF80072
:101AE40022201B01240000000000700038003C008C
:101AF4000F801F8007F00FE001FC07FC00FF83FF4D
:101B0400803FF0FFE01FFC7FFC0FFF9FFF03FFE718
:101B1400FF807FFBFFC00FFFFFF1E3FFFFF8FC7FB7
:101B2400F7FE3F1FF8000FC0000003F0000000782C
:101B34000000000000000000000000061800000182
:101B4400FE000000FFC000003FF000001FFE000088
:101B540007FF800003FFF00001FFFE00007FFF800D
:101B6400001FFFE00003FFF000001FE00020201C26
:101B740000203C3C00077E7E007FFFFF03FFFFFF49
:101B84001FFFFFFF1FFFFFFF1FE7FFFF1F077FFE72
:101B94001C073FFC1C3F1FF81C7F0FF01CFF07E0D5
:101BA400FCFF03C1FCFE0003FC3C0003FC0000033B
:101BB400F8000000F00C03F0001C07F800387FFF69
:101BC4008078FFFFC0F8FFFFC3F0FFFFC7F0FE1FE0
:101BD400CFFFFC0FCFFFFC0FC0FEFC0FC0FCFE1FAD
:101BE400C1F8FFFFC1E0FFFFC1C0FFFFC3807FFF5B
:041BF400830000006A
:041BF80031010008AF
:041BFC000D010008CF
:101C000002040608000000000102030401020304AC
:041C100006070809B2
:04000005080011B12D
:00000001FF
