:020000040800F2
:1000000000500020010700085307000855070008AA
:1000100057070008590700085B07000800000000A8
:100020000000000000000000000000005D07000864
:100030005F07000800000000610700086307000870
:100040005107000851070008510700085107000830
:100050005107000851070008510700085107000820
:100060005107000851070008510700085107000810
:100070005107000851070008510700085107000800
:1000800051070008510700085107000851070008F0
:1000900051070008510700085107000851070008E0
:1000A00051070008510700085107000851070008D0
:1000B00051070008510700085107000851070008C0
:1000C00051070008510700085107000851070008B0
:1000D00051070008510700085107000851070008A0
:1000E00051070008510700085107000800000000F0
:1000F0000000000000000000000000000000000000
:0C01000000000000000000005FF808F1A3
:10010C0010B5054C237833B9044B13B10448AFF345
:10011C0000800123237010BD14000020000000009B
:10012C009C08000808B5034B1BB103490348AFF307
:10013C00008008BD00000000180000209C0800088A
:10014C00CB782DE9F041DA0648BF8A780E8803F0A7
:10015C000F0548BF154316F0FF0F1AD000214FF0C2
:10016C00010E4FF00F0C02680EFA01F737EA060485
:10017C000BD18C000CFA04F822EA080205FA04F4FC
:10018C00282B42EA040225D1476101310829EBD121
:10019C000260FF2E1CD900214FF0010E4FF00F0C06
:1001AC00426801F108040EFA04F434EA06070BD194
:1001BC008F000CFA07F822EA080205FA07F7282B39
:1001CC0042EA07020AD1446101310829E9D14260AF
:1001DC00BDE8F081482B08BF0761D6E7482B08BF64
:1001EC000461F1E770B586B00446868801A80D4617
:1001FC0000F09EF8039A2E4926F03F06B2FBF1F16F
:10020C003604360C88B20643A6802388294E23F088
:10021C0001031B041B0C23802B68B34223D85B0007
:10022C00B2FBF3F39BB2042B38BF0423013080B232
:10023C002084A3832388AA889BB243F001032380E4
:10024C002388698923F4816323F002031B040A4386
:10025C001B0C13439BB223802A89AB8913439BB29B
:10026C00238106B070BD4BF6FF70EE8886421BBF33
:10027C001920434303EB4303B2FBF3F30BBFB2FB75
:10028C00F3F39BB29BB243F48043C3F30B020AB962
:10029C0043F001034FF496724A434FF47A7192FB88
:1002AC00F1F2013292B243F400432284C1E700BF61
:1002BC0040420F00A0860100038821B19BB243F09D
:1002CC0001030380704723F001031B041B0CF8E7A8
:1002DC00038821B19BB243F480730380704723F4ED
:1002EC0080731B041B0CF8E7038821B19BB243F409
:1002FC0000730380704723F400731B041B0CF8E796
:10030C000182704722B141F0010189B2018270472C
:10031C0001F0FE01F9E7838A008B9BB243EA0043AC
:10032C0021F07F401840431A584258417047000052
:10033C001C4A10B5536803F00C03042B01D0082B96
:10034C001FD0194B03605368184CC3F30313E15CC3
:10035C000368CB4043605168C1F30221615C23FA0E
:10036C0001F181605168C1F3C221615CCB40C36073
:10037C0052680F49C2F381328A5CB3FBF2F303611A
:10038C0010BD53685168C3F38343CC0303F10203DC
:10039C0002D408494B43D5E751688903F9D4024983
:1003AC00F8E700BF0010024000127A0004000020A1
:1003BC000000002000093D00044B9A6911B1104364
:1003CC009861704722EA0000FAE700BF0010024073
:1003DC00044BDA6911B11043D861704722EA00006E
:1003EC00FAE700BF0010024030B5012187B0054686
:1003FC000820FFF7E1FF01214FF40010FFF7E8FFA1
:10040C00C023ADF8043003238DF806301C2301A95A
:10041C0012488DF80730FFF793FE0023ADF80C302F
:10042C004BF6FF73ADF80E301023ADF810304FF4CF
:10043C008063ADF812304FF4804306AC44F8105D85
:10044C00074D01212846ADF81430FFF735FF214642
:10045C002846FFF7C7FE07B030BD00BF000C0140B7
:10046C000054004008B50548FFF7BEFF00F0EAF85D
:10047C0000F0DCF800F066F8002008BD801A0600D9
:10048C006423002182B00191019AB2F57A6F03D3F3
:10049C00013BF8D102B07047019A01320192F3E7A7
:1004AC0070B5012105462348FFF712FF44F621647D
:1004BC00214E31461F48FFF72EFF50B30022782102
:1004CC001C48FFF71FFF44F621641C4E31461948A7
:1004DC00FFF721FF08B300211648FFF711FF44F680
:1004EC002164174E31461348FFF715FFC8B1294652
:1004FC001048FFF705FF44F62164114D29460D48BD
:10050C00FFF709FF88B101210A48FFF7EDFE002033
:10051C0070BD013CCDD1012070BD013CD6D1022073
:10052C0070BD013CDED1032070BD013CE6D104203E
:10053C0070BD00BF005400400100030082000700A2
:10054C00840007002DE9F0412120FFF7A9FF0020CE
:10055C00FFF7A6FF7F20FFF7A3FF2220FFF7A0FFE6
:10056C000020FFF79DFF0720FFF79AFF01212A4883
:10057C00FFF7AEFE44F62164284D29462648FFF7C6
:10058C00CAFEA0B3002278212348FFF7BBFE44F635
:10059C002164234D29462048FFF7BDFE60B340215E
:1005AC001D48FFF7ADFE44F621641E4E1A4D314630
:1005BC002846FFF7B0FE20B300241B4EDFF858800E
:1005CC00184F315D4046FFF79BFE44F621653946D6
:1005DC001148FFF7A0FEC8B10134B4F5806FF0D11B
:1005EC0001210D48FFF780FE0020BDE8F081013CA1
:1005FC00C3D10120BDE8F081013CCBD10220BDE884
:10060C00F081013CD3D10320BDE8F081013DDED166
:10061C000420BDE8F08100BF00540040010003003D
:10062C0082000700840007003000002000231946D8
:10063C00034A99540133B3F5806FFAD1704700BF68
:10064C003000002008B5FFF71BFFAE20FFF728FF96
:10065C000020FFF725FF1020FFF722FF4020FFF7B7
:10066C001FFF8120FFF71CFFCC20FFF719FFA120F3
:10067C00FFF716FFC820FFF713FFA620FFF710FFA8
:10068C00A420FFF70DFFA820FFF70AFF3F20FFF77C
:10069C0007FFD320FFF704FF0020FFF701FFD52051
:1006AC00FFF7FEFEF020FFF7FBFED920FFF7F8FE68
:1006BC00F120FFF7F5FEDA20FFF7F2FE1220FFF72C
:1006CC00EFFEDB20FFF7ECFE4020FFF7E9FE2020D9
:1006DC00FFF7E6FE0020FFF7E3FE8D20FFF7E0FEBC
:1006EC001420FFF7DDFEAF20FFF7DAFEFFF7C8FEA0
:1006FC00002008BDDFF834D0002103E00C4B5B5820
:10070C00435004310B480C4B42189A42F6D30B4A17
:10071C0002E0002342F8043B094B9A42F9D300F063
:10072C001BF800F091F8FFF79DFE70470050002079
:10073C00BC08000800000020140000201400002059
:10074C0030040020FEE77047FEE7FEE7FEE7FEE719
:10075C007047704770477047374B82B01A6842F049
:10076C0001021A605968354A0A405A601A6822F028
:10077C00847222F480321A601A6822F480221A6081
:10078C005A6822F4FE025A604FF41F029A6000224B
:10079C00009201921A6842F480321A601A6802F4CC
:1007AC0000320192009A01320092019A1AB9009A11
:1007BC00B2F5A06FF2D11A6812F4003218BF012200
:1007CC000192019A012A05D04FF000621C4B9A60ED
:1007DC0002B070471B4A116841F01001116011689A
:1007EC0021F003011160116841F0020111605A6897
:1007FC005A605A685A605A6842F480625A605A6861
:10080C0022F47C125A605A6842F4E8125A601A6850
:10081C0042F080721A601A689201FCD55A6822F074
:10082C0003025A605A6842F002025A605A6802F097
:10083C000C02082AFAD1C7E7001002400000FFF8AA
:10084C0000ED00E00020024070B500250C4E0D4C70
:10085C00A41BA410A54209D100F01AF800250A4ED9
:10086C000A4CA41BA410A54205D170BD56F8253026
:10087C0098470135EEE756F8253098470135F2E7F1
:10088C00B4080008B4080008B4080008B808000848
:10089C00F8B500BFF8BC08BC9E467047F8B500BF61
:0808AC00F8BC08BC9E46704731
:0408B4003101000806
:0408B8000D01000826
:1008BC000204060800000000010203040102030404
:0408CC00060708090A
:0400000508000701E7
:00000001FF
